:020000040000FA
:1000000001288501860183168601850105158B016E
:100010008312A52007309F00A301A401241C1628E9
:100020003A28241C2120241845200E28061A5E2870
:1000300086196128061964288618672806186A2810
:100040000E28061A382086192C2006192F2086180B
:1000500032200618352008009B20952008009F209C
:1000600099200800A3209D200800A720A1200800B7
:100070002414080006186A288618672806196428B8
:1000800086196128061A5E280E2806185020861840
:100090005B200619582086195520061A52200800A0
:1000A000241008009720992008009B209D2008001C
:1000B0009F20A1200800A320A52008000A30A3004B
:1000C0006D280830A3006D280630A3006D28043089
:1000D000A3006D280230A3006D282130A000051D6B
:1000E000CD282030A100000000000000000000002A
:1000F0000000000000005530A200000000000000D9
:1001000000000000000000000000A20B7D28A10BF1
:100110007328A00B6F28861E91289328A30B6D28A7
:10012000112886168E2886128E28061608000612BA
:10013000080086150800861108000615080006113B
:10014000080086140800861008000614080006102F
:1001500008002130A0002030A100000000000000B5
:10016000000000000000000000005530A200000068
:100170000000000000000000000000000000A20BD2
:10018000B728A10BAD28A00BAB28861EC928CB2809
:1001900008008616C8288612C828061AD82086198C
:1001A000DD200619E2208618E7200618EC20112829
:1001B000A920A920972099200800A920A9209B20E8
:1001C0009D200800A920A9209F20A1200800A92087
:1001D000A920A320A5200800A920A920A920A920A2
:0E01E000A920A920A920A920A920A920080053
:02400E00103F61
:00000001FF
