:020000040000FA
:1000000001288501860183168601850105158B016E
:10001000831207309F00A301A401241C1128282863
:100020000D28061A3F2886194228061945288618E1
:10003000482806184B281D200D28061A96208619D8
:100040008A2006198D208618902006189320080013
:10005000061A3F2886194228061945288618482876
:1000600006184B2834200D28061A9C2086199F203C
:100070000619A2208618A5200618992008000A3023
:10008000A3004E280830A3004E280630A3004E28B7
:100090000430A3004E280230A3004E282130A000D7
:1000A000051DCC282030A100000000000000000049
:1000B00000000000000000005530A2000000000019
:1000C000000000000000000000000000A20B5E28FD
:1000D000A10B5428A00B5028861E72287428A30B4D
:1000E0004E280D2886166F2886126F2806160800DF
:1000F000061208008615080086110800061508007B
:10010000061108008614080086100800061408006E
:10011000061008007C207620080080207A20080045
:1001200084207E20080088208220080078208620F5
:10013000080088207620080078207A2008007C209B
:100140007E2008008020822008008420862008006D
:100150002130A0002030A1000000000000000000BD
:1001600000000000000000005530A2000000000068
:10017000000000000000000000000000A20BB628F4
:10018000A10BAC28A00BAA28861EC828CA280800E4
:100190008616C7288612C728061AD7208619DC209B
:1001A0000619E1208618E6200618EB200D28A82065
:1001B000A82078207A200800A820A8207C207E2073
:1001C0000800A820A820802082200800A820A820BD
:1001D000842086200800A820A820A820A820A820E5
:0C01E000A820A820A820A820A820080023
:0401EC0000340034A7
:02400E00103F61
:00000001FF
